:100000000C94DA000C9402010C9402010C9402018D
:100010000C9402010C9402010C9402010C94020154
:100020000C9402010C9402010C9402010C94020144
:100030000C9402010C9402010C9402010C94020134
:100040000C94EB040C9402010C945B050C943505A4
:100050000C9402010C9402010C9402010C94020114
:100060000C9402010C94020100407A10F35A00A093
:10007000724E18090010A5D4E80000E87648170071
:1000800000E40B54020000CA9A3B000000E1F505B1
:10009000000080969800000040420F000000A086FB
:1000A00001000000102700000000E803000000002D
:1000B0006400000000000A000000000001000000D1
:1000C00000002C76D888DC674F0823DFC1DFAE59EB
:1000D000E1B1B796E5E3E453C63AE651997696E87E
:1000E000E6C28426EB898C9B62ED407C6FFCEFBC02
:1000F0009C9F40F2BAA56FA5F490055A2AF75C932D
:100100006B6CF9676DC11BFCE0E40D47FEF520E662
:10011000B500D0ED902E0300943577050080841E45
:10012000080000204E0A000000C80C333333330FA0
:10013000986E12831141EF8D2114893BE65516CF3D
:10014000FEE6DB18D1844B381BF77C1D901DA4BB49
:10015000E424203284725E228100C9F124ECA1E5FE
:100160003D27000000080002010000030407000012
:1001700000000000000000000000250028002B0007
:1001800000000000240027002A00040404040404E2
:100190000404020202020202030303030303010236
:1001A0000408102040800102040810200102040805
:1001B0001020310811241FBECFEFD8E0DEBFCDBF25
:1001C00022E0AAECB1E001C01D92A637B207E1F728
:1001D00011E0A0E0B1E0E8EDFEE102C005900D9273
:1001E000AA3CB107D9F710E0CAEDD0E004C02197CE
:1001F000FE010E94720DC93DD107C9F70E948D050D
:100200000C946A0F0C94000090E0FC01E256FE4F43
:10021000249186579E4FFC018491882399F090E0A9
:10022000880F991FFC01E058FE4FA591B491FC0185
:10023000EA58FE4F859194918FB7F894EC91E22B98
:10024000EC938FBF089590E0FC01EE59FE4F24918E
:10025000FC01E256FE4F3491FC01E657FE4FE4915B
:10026000EE23C9F0222339F0233001F1A8F4213024
:1002700019F1223029F1F0E0EE0FFF1FEA58FE4F8E
:10028000A591B4918FB7F894EC91611126C0309587
:100290003E233C938FBF08952730A9F02830C9F042
:1002A000243049F7809180008F7D03C080918000C9
:1002B0008F7780938000DFCF84B58F7784BDDBCFCD
:1002C00084B58F7DFBCF8091B0008F778093B00095
:1002D000D2CF8091B0008F7DF9CF3E2BDACFAF9295
:1002E000BF92CF92DF92EF92FF920F931F93CF9323
:1002F000DF936C017B018B01040F151FEB015E0185
:10030000AE18BF08C017D10759F06991D601ED9119
:10031000FC910190F081E02DC6010995892B79F7B8
:10032000C501DF91CF911F910F91FF90EF90DF906A
:10033000CF90BF90AF900895FC01538D448D252F31
:1003400030E0842F90E0821B930B541710F0CF966F
:10035000089501970895FC01918D828D981761F0A1
:10036000A28DAE0FBF2FB11D5D968C91928D9F5FB8
:100370009F73928F90E008958FEF9FEF0895FC0197
:10038000918D828D981731F0828DE80FF11D858D4A
:1003900090E008958FEF9FEF0895FC01918D228DDD
:1003A000892F90E0805C9F4F821B91098F73992762
:1003B000089585ED91E00E94CD0121E0892B09F49B
:1003C00020E0822F089580E090E0892B29F00E94A0
:1003D000D90181110C9400000895FC01A48DA80F8F
:1003E000B92FB11DA35ABF4F2C91848D90E0019677
:1003F0008F739927848FA689B7892C93A089B18997
:100400008C91837080648C93938D848D981306C037
:100410000288F389E02D80818F7D80830895EF929B
:10042000FF920F931F93CF93DF93EC0181E0888FAE
:100430009B8D8C8D98131AC0E889F989808185FF7E
:1004400015C09FB7F894EE89FF896083E889F98920
:1004500080818370806480839FBF81E090E0DF9122
:10046000CF911F910F91FF90EF900895F62E0B8D75
:1004700010E00F5F1F4F0F731127E02E8C8D8E1130
:100480000CC00FB607FCFACFE889F989808185FF97
:10049000F5CFCE010E94ED01F1CFEB8DEC0FFD2FDA
:1004A000F11DE35AFF4FF0829FB7F8940B8FEA8952
:1004B000FB8980818062CFCFCF93DF93EC01888D61
:1004C0008823B9F0AA89BB89E889F9898C9185FDCF
:1004D00003C0808186FD0DC00FB607FCF7CF8C915D
:1004E00085FFF2CF808185FFEDCFCE010E94ED0127
:1004F000E9CFDF91CF910895CF92DF92EF92FF92F3
:10050000CF93DF93C0E1C12CD12C7601D0E4D093FE
:100510007C0080917A00806480937A0080917A00D8
:1005200086FDFCCF6091780070917900072E000C59
:10053000880B990B0E94E40A9B01AC01C701B6012C
:100540000E94390C6B017C01C15009F720E030E0BA
:1005500040E85DE30E94430BDF91CF91FF90EF9065
:10056000DF90CF900895FC0101900020E9F73197CA
:10057000AF01481B590BBC0185ED91E00C946F0154
:100580008F929F92AF92BF920F931F93CF93DF935F
:10059000CDB7DEB7A1970FB6F894DEBF0FBECDBFC3
:1005A00019A2423008F44AE08E010F5D1F4F842EDD
:1005B000912CB12CA12CA50194010E94500DE62F85
:1005C000B901CA01EA30F4F4E05DD801EE938D017F
:1005D000232B242B252B79F790E080E0109719F03E
:1005E000CD010E94B302A1960FB6F894DEBF0FBEF4
:1005F000CDBFDF91CF911F910F91BF90AF909F9092
:100600008F900895E95CE1CFCF93DF930E94B3020E
:10061000EC018CE291E00E94B3028C0F9D1FDF91F0
:10062000CF9108954F925F926F927F928F929F9297
:10063000AF92BF92CF92DF92EF92FF920F931F93F0
:10064000CF936B017C01742EAC019B010E944B0D7A
:10065000882399F08FE291E0CF911F910F91FF9045
:10066000EF90DF90CF90BF90AF909F908F907F9052
:100670006F905F904F900C94B30246015701E8943D
:10068000B7F82FEF3FEF4FE75FE7C501B4010E94D6
:100690004B0D81110DC02FEF3FEF4FE75FE7C50115
:1006A000B4010E94DD0A18161CF483E391E0D4CF54
:1006B0002FEF3FEF4FE75FE4C701B6010E94460D01
:1006C00018161CF487E391E0C7CF2FEF3FEF4FE7F9
:1006D0005FECC701B6010E94DD0A87FDF3CF20E081
:1006E00030E0A901C701B6010E94DD0A10E000E078
:1006F00087FF0AC06DE285ED91E00E940F028C0138
:10070000F7FAF094F7F8F094C0E060E070E080E071
:100710009FE37C1641F020E030E040E251E40E948B
:10072000A50CCF5FF6CFA70196010E94390C2B01D3
:100730003C010E94170D4B015C014AE00E94C0027F
:100740007C01E00EF11ECC23C1F1C501B4010E9471
:10075000E20A9B01AC01C301B2010E94380C4B01BB
:100760005C016EE285ED91E00E940F02E80EF91E39
:10077000C15018F120E030E040E251E4C501B4017D
:100780000E94430B2B013C010E94170D4B01B12C21
:10079000A12C4AE0C501B4010E94C002E80EF91E76
:1007A000C501B4010E94E20A9B01AC01C301B20180
:1007B0000E94380C4B015C01DBCFC701CF911F9128
:1007C0000F91FF90EF90DF90CF90BF90AF909F90F0
:1007D0008F907F906F905F904F9008950F931F932D
:1007E000CF93DF93EC0188819981009759F02A819A
:1007F0003B812617370730F081E0DF91CF911F91C1
:100800000F9108958B016F5F7F4F0E949D0E00979F
:1008100059F0998388831B830A832C813D81232B84
:1008200059F7FC011082E8CF80E0E7CFEF92FF920A
:100830000F931F93CF93DF936115710541F480E00F
:10084000DF91CF911F910F91FF90EF900895411587
:100850005105B1F07B01EC010C811D81040F151FC6
:10086000B8010E94EE03882351F3288139818C81DD
:100870009D81B701820F931F0E94630F1D830C831C
:1008800081E0DECFCF93DF93EC01888199810097DF
:1008900011F00E94140E198218821D821C821B8284
:1008A0001A82DF91CF910895CF93DF93EC01FB0182
:1008B00001900020E9F73197AF01461B570B0E94CA
:1008C0001604811103C0CE010E944204CE01DF91C3
:1008D000CF910895EF92FF920F931F93CF93DF93E1
:1008E000EC017B018A01BA010E94EE0381110BC069
:1008F000CE010E944204CE01DF91CF911F910F9152
:10090000FF90EF9008951D830C83B7018881998132
:100910000E94630FF0CFEF92FF920F931F93CF933C
:10092000DF93CDB7DEB7A1970FB6F894DEBF0FBE49
:10093000CDBF7C01CB01BA01F70111821082138275
:100940001282158214828E010F5F1F4F22E044E055
:100950000E945E080097C9F0FC0101900020E9F7B1
:100960003197AF01481B590BBC01C7010E946A04B3
:10097000A1960FB6F894DEBF0FBECDBFDF91CF9129
:100980001F910F91FF90EF900895C7010E944204BC
:10099000EFCFFB01DC0111961C921E9213961C9264
:1009A0001E92129715961C921E92149786179707FF
:1009B00049F0608171816115710521F04481558193
:1009C0000C946A040895FC0180819181009711F0D4
:1009D0000C94140E08951F920F920FB60F921124CB
:1009E0002F933F938F939F93AF93BF938091D101A8
:1009F0009091D201A091D301B091D4013091D00156
:100A000023E0230F2D3758F50196A11DB11D20932A
:100A1000D0018093D1019093D201A093D301B093E0
:100A2000D4018091CC019091CD01A091CE01B091E3
:100A3000CF010196A11DB11D8093CC019093CD01F2
:100A4000A093CE01B093CF01BF91AF919F918F91B1
:100A50003F912F910F900FBE0F901F90189526E891
:100A6000230F0296A11DB11DD2CF1F920F920FB678
:100A70000F9211242F933F934F935F936F937F9324
:100A80008F939F93AF93BF93EF93FF9385ED91E087
:100A90000E94ED01FF91EF91BF91AF919F918F91D6
:100AA0007F916F915F914F913F912F910F900FBE6A
:100AB0000F901F9018951F920F920FB60F9211244E
:100AC0002F938F939F93EF93FF93E091E501F09124
:100AD000E6018081E091EB01F091EC0182FD1BC009
:100AE00090818091EE018F5F8F732091EF018217CB
:100AF00041F0E091EE01F0E0EB52FE4F958F8093D4
:100B0000EE01FF91EF919F918F912F910F900FBE6A
:100B10000F901F9018958081F4CFCF93DF93CDB7BE
:100B2000DEB765970FB6F894DEBF0FBECDBF7894E1
:100B300084B5826084BD84B5816084BD85B58260E2
:100B400085BD85B5816085BD80916E008160809393
:100B50006E001092810080918100826080938100FC
:100B6000809181008160809381008091800081600C
:100B7000809380008091B10084608093B100809167
:100B8000B00081608093B00080917A00846080938F
:100B90007A0080917A00826080937A0080917A0056
:100BA000816080937A0080917A00806880937A00D7
:100BB0001092C100E091E501F091E60182E08083AE
:100BC000E091E101F091E2011082E091E301F09106
:100BD000E4018FEC80831092ED01E091E901F09146
:100BE000EA0186E08083E091E701F091E8018081ED
:100BF00080618083E091E701F091E8018081886065
:100C00008083E091E701F091E80180818068808332
:100C1000E091E701F091E80180818F7D808384E09D
:100C20000E94040185E00E94040186E00E94040104
:100C300087E00E94040188E00E94040161E084E0F2
:100C40000E9423018E010F5F1F4F80E0A82E80E0DD
:100C5000B82E0E947C026B017C0120E030E04FE264
:100C600054E40E94460D18160CF077C01092CB0188
:100C700020E030E04FE254E4C701B6010E94DD0AF3
:100C800087FF7AC08FB7F8944090D1015090D2017D
:100C90006090D3017090D4018FBF20E030E441E236
:100CA00054E4C701B6010E94DD0A87FF29C00E94F3
:100CB0007C026B017C012FB7F8948091D101909157
:100CC000D201A091D301B091D4012FBF841995090D
:100CD000A609B709893E9340A105B105F0F28BE35F
:100CE00091E00E94040387E591E00E94B30242E094
:100CF000C701B6010E9412038CE291E00E94B30288
:100D000020E030E441E254E4C701B6010E94DD0A6C
:100D100018160CF467C08091CA01833008F052C0E5
:100D200060E084E00E94230160E085E00E942301EE
:100D300060E086E00E94230160E087E00E942301DA
:100D40000E947C0220E030E040E251E40E94460D27
:100D500018160CF561E088E0F1CF20E030E04FE2BA
:100D600054E4C701B6010E94DD0A87FF05C08091E7
:100D7000CB01882309F486CFC8010E94E304A114A3
:100D8000B10409F466CF0E94D901882309F461CF28
:100D90000E9400005ECF60E088E00E9423018DE5A4
:100DA00091E00E940403E091CA01F0E0E85EFE4F8A
:100DB00061E081810E9423018091CA018F5F80934D
:100DC000CA01DACF843071F41A8219821C821B8224
:100DD0001E821D8248E250E065E771E0C8010E9472
:100DE0006A04CACF20E030EC40E254E4C701B60107
:100DF0000E94460D87FDC0CF8FB7F894C090D101F7
:100E0000D090D201E090D301F090D4018FBFC418EC
:100E1000D508E608F7088EE991E00E94B3024AE09F
:100E2000C701B6010E94C0028CE291E00E94B302A9
:100E30008091CA011B861A861D861C861F861E8607
:100E40004AE0B80190E00E947C08F801019000207F
:100E5000E9F73197AF01401B510BB801CE010A965B
:100E60000E946A041A8219821C821B821E821D82C1
:100E700048E050E064EB71E0C8010E946A044E85CE
:100E80005F856A857B85C8010E941604811103C0B5
:100E9000C8010E9442044D815E8169817A8185ED9D
:100EA00091E00E946F018CE291E00E94B302C801C0
:100EB0000E94E304CE010A960E94E304C701B60132
:100EC0000E94E20A20E030E04AE754E40E94A50CC8
:100ED000E091CA0124E0E29FF0011124E45EFE4F9C
:100EE00020813181428153810E94A50C6B017C01DC
:100EF0002FE530E749E850E30E94DD0A87FF57C03D
:100F000025EA34ED48E653E5C701B6010E94430BDC
:100F10006B017C0142E00E9412038DEB91E00E9484
:100F20000403B701A601CE010A960E948B04BE01FC
:100F3000665F7F4FC8010E94C9046DEB71E0C80174
:100F40000E945404BC01CE0140960E94C904C8010D
:100F50000E94E304CE010A960E94E304E091CA01D4
:100F6000F0E0E85EFE4F60E080810E942301109275
:100F7000CA0161E084E00E94230181E08093CB01FB
:100F8000888999899A8389838A899B899C838B83A1
:100F90008C899D899E838D83198A188A1B8A1A8A57
:100FA0001D8A1C8ACE0140960E94E304E5CE2DEBFB
:100FB00037E346E855E3C701B6010E94DD0A87FF23
:100FC00020C028E23BE64EE65EE4C701B6010E947F
:100FD000430B6B017C0142E00E94120381EC91E023
:100FE0000E940403B701A601CE010A960E948B0459
:100FF000BE01665F7F4FC8010E94C90461EC71E0C9
:101000009ECF2FE632E143E85AE3C701B6010E94C2
:10101000DD0A87FFA3CF20E034E244E759E4C701AB
:10102000B6010E94430B6B017C012FE832EC45EDC9
:101030005FE30E94430B42E00E94120385EC91E0C3
:101040000E940403B701A601CE010A960E948B04F8
:10105000BE01665F7F4FC8010E94C90465EC71E064
:101060006ECFE5EDF1E01382128288EE93E0A0E00E
:10107000B0E084839583A683B7838AE091E091836F
:10108000808385EC90E09587848784EC90E0978757
:10109000868780EC90E0918B808B81EC90E0938B45
:1010A000828B82EC90E0958B848B86EC90E0978B22
:1010B000868B118E128E138E148E0895EF920F93DD
:1010C0001F93CF93DF93E80134E047FD34E1042E12
:1010D000000C550B57FF03C0519541955109E32E64
:1010E000022F242FAE010E949608CE01DF91CF91EE
:1010F0001F910F91EF900895BB27FB015527AA2759
:10110000880F991FAA1FA41710F0A41B8395505194
:10111000B9F7A05DAA3308F0A95DA193009779F70C
:10112000B111B1931192CB010C94CD0AA9E0B0E0BA
:10113000ECE9F8E00C94070C6A01F22EB02E102FA7
:10114000FBE3AF2EA01608F41BE31F5F012F27E07F
:10115000AE014F5F5F4F0E94F509BC018981982F56
:101160009970913009F43FC09BE2E1FC04C09E2DD0
:101170009170E0FC3AC05E2D5071E82FE87083FF5B
:1011800046C084E0911101C083E0EF2DE81B8F156C
:1011900008F0E0E0D6018E2F20E2552351F199238B
:1011A00029F0D6019C93C60101966C0196012D5F32
:1011B0003F4FE2FE24C08EE4D6018C9391E4119659
:1011C0009C93119712968C93D9018E2F90E28111E6
:1011D0001BC0E20FF32FF11D10828EEF9FEF2996B7
:1011E000ECE00C94230C9DE2C6CF90E2C4CF2D938B
:1011F00081508111FCCFCE0ED11CE0E0D0CF8EE625
:10120000D6018C9391E6DBCF9D938150E0CF482FA0
:10121000447082FF3DC084E0911101C083E08F15CE
:1012200010F4EF2DE81BD6018E2F20E2552309F193
:10123000992329F0D6019C93C60101966C01960171
:101240002D5F3F4FE2FE1BC089E4D6018C938EE4F4
:1012500011968C93119786E412968C93D9018E2F58
:1012600090E2882309F4B5CF9D938150FACF2D9356
:1012700081508111FCCFCE0ED11CE0E0D9CF89E6A0
:10128000D6018C938EE611968C93119786E6E4CF67
:101290009B0177FF02C030E020E0A1E0B0E09111B7
:1012A00002C0B0E0A0E0F9013196AE0FBF1F8B2C59
:1012B000912CBB2009F461C05401EFEFAE1ABE0AB5
:1012C000AA0DBB1DFA161B0619F014F04F2D4A1B70
:1012D000511188C0E3FC59C07601A42FB0E2A111DE
:1012E0004FC0C40ED11C992309F45BC040E0D60165
:1012F0001196F60190836D01552309F448C0012F22
:10130000060F9A81582F507184FF03C0913309F45E
:10131000015010160CF047C0093008F008E0EEE26A
:10132000FE2E5B01A01AB108850191948194910869
:101330002F3F320729F4D601FC92F60131966F0156
:101340006217730794F1021713077CF5DB01A21BE8
:10135000B30BAA24A394B12CAC0EBD1EAA0DBB1DC9
:1013600011968C9121503109D60111962815390515
:10137000F4F0F60180836D01DBCFB12CA12CA0CF5E
:10138000F701B1937F01A150AACF9111B0CFD6013F
:10139000942F50E302C05D9391509111FCCFC40E85
:1013A000D11C40E0ACCF01E0BACF80E3DBCF6217C5
:1013B000730731F4963388F4953311F4552369F0AB
:1013C000F6018083FD01842F90E2811108C0A40FF3
:1013D000B11D1C9290E080E002CF81E3F1CF9193A8
:1013E0008150F3CF911183CF8ACF283008F027E0C6
:1013F0003327DA01990F311D87FD91600096610551
:10140000710539F432602E5F3D9330E32A95E1F7A0
:1014100008959F3F30F080387105610509F03C5F09
:101420003C5F3D93913008F08068911DDF93CF932E
:101430001F930F93FF92EF92192F987F9695E92FA4
:1014400096959695E90FFF27EE53FF4F992733277F
:10145000EE24FF24A701E70105900894079428F4DF
:10146000360FE71EF81E491F511D660F771F881F94
:10147000991F0694A1F70590079428F4E70EF81E2B
:10148000491F561FC11D770F881F991F661F06949D
:10149000A1F70590079428F4F80E491F561FC71F9F
:1014A000D11D880F991F661F771F0694A1F705901D
:1014B000079420F4490F561FC71FD81F990F661FA6
:1014C000771F881F0694A9F784911095177041F033
:1014D000D695C79557954795F794E7941A95C1F710
:1014E000E8E6F0E068941590159135916591959135
:1014F00005907FE27395E118F10A430B560BC90B77
:10150000D009C0F7E10CF11E431F561FC91FD01DA3
:101510007EF4703311F48A95E6CFE894015030F0F0
:10152000080F0AF40027021708F4202F2395022F32
:101530007A3328F079E37D932A95E9F710C07D93FB
:101540002A9589F606949795679537951795179478
:10155000E118F10A430B560BC90BD00998F02395FB
:101560007E9173957A3308F070E37C932013B8F77B
:101570007E9170617D9330F0839571E37D9370E38C
:101580002A95E1F71124EF90FF900F911F91CF91D1
:10159000DF91992787FD90950895DC01FC01672F65
:1015A00071917723E1F7329704C07C916D9370833A
:1015B0006291AE17BF07C8F308950E941F0B08F48D
:1015C00081E00895E89409C097FB3EF490958095DA
:1015D000709561957F4F8F4F9F4F9923A9F0F92FF9
:1015E00096E9BB279395F695879577956795B79577
:1015F000F111F8CFFAF4BB0F11F460FF1BC06F5F5D
:101600007F4F8F4F9F4F16C0882311F096E911C06E
:10161000772321F09EE8872F762F05C0662371F08F
:1016200096E8862F70E060E02AF09A95660F771FA3
:10163000881FDAF7880F9695879597F90895990F7F
:101640000008550FAA0BE0E8FEEF16161706E8078C
:10165000F907C0F012161306E407F50798F0621BAD
:10166000730B840B950B39F40A2661F0232B242B82
:10167000252B21F408950A2609F4A140A6958FEFA1
:10168000811D811D08950E94560B0C94C70B0E946A
:10169000B90B38F00E94C00B20F0952311F00C9488
:1016A000B00B0C94B60B11240C94FB0B0E94D80BBE
:1016B00070F3959FC1F3950F50E0551F629FF001A5
:1016C000729FBB27F00DB11D639FAA27F00DB11DBE
:1016D000AA1F649F6627B00DA11D661F829F222747
:1016E000B00DA11D621F739FB00DA11D621F839FCE
:1016F000A00D611D221F749F3327A00D611D231FA4
:10170000849F600D211D822F762F6A2F11249F57F1
:1017100050409AF0F1F088234AF0EE0FFF1FBB1FF4
:10172000661F771F881F91505040A9F79E3F5105B3
:1017300080F00C94B00B0C94FB0B5F3FE4F3983EED
:10174000D4F3869577956795B795F795E7959F5F5D
:10175000C1F7FE2B880F911D9695879597F90895EF
:1017600097F99F6780E870E060E008959FEF80EC54
:10177000089500240A9416161706180609060895F7
:1017800000240A9412161306140605060895092E5D
:101790000394000C11F4882352F0BB0F40F4BF2BCC
:1017A00011F460FF04C06F5F7F4F8F4F9F4F08950C
:1017B00057FD9058440F551F59F05F3F71F0479502
:1017C000880F97FB991F61F09F3F79F087950895E7
:1017D000121613061406551FF2CF4695F1DF08C006
:1017E000161617061806991FF1CF86957105610523
:1017F00008940895E894BB2766277727CB0197F9CB
:1018000008952F923F924F925F926F927F928F92A4
:101810009F92AF92BF92CF92DF92EF92FF920F937F
:101820001F93CF93DF93CDB7DEB7CA1BDB0B0FB689
:10183000F894DEBF0FBECDBF09942A883988488846
:101840005F846E847D848C849B84AA84B984C884DC
:10185000DF80EE80FD800C811B81AA81B981CE0FD3
:10186000D11D0FB6F894DEBF0FBECDBFED010895B8
:101870005058BB27AA270E94500C0C94C70B0E94FB
:10188000B90B38F00E94C00B20F039F49F3F19F4D7
:1018900026F40C94B60B0EF4E095E7FB0C94B00B19
:1018A000E92F0E94D80B58F3BA1762077307840711
:1018B000950720F079F4A6F50C94FA0B0EF4E09558
:1018C0000B2EBA2FA02D0B01B90190010C01CA01FA
:1018D000A0011124FF27591B99F0593F50F4503EA5
:1018E00068F11A16F040A22F232F342F4427585F97
:1018F000F3CF469537952795A795F0405395C9F7AF
:101900007EF41F16BA0B620B730B840BBAF0915066
:10191000A1F0FF0FBB1F661F771F881FC2F70EC005
:10192000BA0F621F731F841F48F4879577956795D8
:10193000B795F7959E3F08F0B0CF9395880F08F0C4
:101940009927EE0F9795879508950E94B90C0C94EE
:10195000C70B0E94C00B58F00E94B90B40F029F44D
:101960005F3F29F00C94B00B51110C94FB0B0C94BD
:10197000B60B0E94D80B68F39923B1F3552391F36A
:10198000951B550BBB27AA2762177307840738F0EE
:101990009F5F5F4F220F331F441FAA1FA9F335D04B
:1019A0000E2E3AF0E0E832D091505040E695001CFF
:1019B000CAF72BD0FE2F29D0660F771F881FBB1FB9
:1019C000261737074807AB07B0E809F0BB0B802D97
:1019D000BF01FF2793585F4F3AF09E3F510578F0C3
:1019E0000C94B00B0C94FB0B5F3FE4F3983ED4F3E4
:1019F000869577956795B795F7959F5FC9F7880F97
:101A0000911D9695879597F90895E1E0660F771FE8
:101A1000881FBB1F621773078407BA0720F0621B79
:101A2000730B840BBA0BEE1F88F7E09508950E94A4
:101A3000E00B88F09F5798F0B92F9927B751B0F075
:101A4000E1F0660F771F881F991F1AF0BA95C9F742
:101A500014C0B13091F00E94FA0BB1E008950C94DB
:101A6000FA0B672F782F8827B85F39F0B93FCCF38E
:101A7000869577956795B395D9F73EF490958095BF
:101A8000709561957F4F8F4F9F4F08950E941F0B58
:101A900008F48FEF08950E941F0B880B990B08958F
:101AA000A1E21A2EAA1BBB1BFD010DC0AA1FBB1F62
:101AB000EE1FFF1FA217B307E407F50720F0A21BD4
:101AC000B30BE40BF50B661F771F881F991F1A9441
:101AD00069F760957095809590959B01AC01BD016B
:101AE000CF010895EE0FFF1F0590F491E02D0994AA
:101AF0000F931F93CF93DF938230910510F482E010
:101B000090E0E0917402F091750230E020E0B0E0E6
:101B1000A0E0309799F42115310509F44AC0281B3B
:101B2000390B24303105D8F58A819B816115710507
:101B300089F1FB0193838283FE0111C040815181B1
:101B40000281138148175907E0F04817590799F4A3
:101B5000109761F012960C93129713961C9332967D
:101B6000CF01DF91CF911F910F91089500937402DF
:101B700010937502F4CF2115310551F04217530728
:101B800038F0A901DB019A01BD01DF01F801C1CFE5
:101B9000EF01F9CF9093750280937402CDCFFE01CF
:101BA000E20FF31F819391932250310939832883E7
:101BB000D7CF2091720230917302232B41F42091F0
:101BC000020130910301309373022093720220913D
:101BD0000001309101012115310541F42DB73EB7C7
:101BE0004091040150910501241B350BE0917202D4
:101BF000F0917302E217F307A0F42E1B3F0B281796
:101C0000390778F0AC014E5F5F4F2417350748F075
:101C10004E0F5F1F50937302409372028193919312
:101C20009FCFF0E0E0E09CCFCF93DF930097E9F007
:101C3000FC01329713821282A0917402B091750256
:101C4000ED0130E020E01097A1F420813181820F76
:101C5000931F20917202309173022817390709F0FF
:101C600061C0F0937302E0937202DF91CF91089507
:101C7000EA01CE17DF07E8F54A815B819E01411535
:101C80005105B1F7E901FB83EA8349915991C40FEA
:101C9000D51FEC17FD0761F4808191810296840FB6
:101CA000951FE90199838883828193819B838A832D
:101CB000F0E0E0E012968D919C9113970097B9F5B2
:101CC0002D913C911197CD010296820F931F209187
:101CD0007202309173022817390739F6309751F59F
:101CE0001092750210927402B0937302A093720264
:101CF000BCCFD383C28340815181840F951FC81705
:101D0000D90761F44E5F5F4F88819981480F591F51
:101D1000518340838A819B8193838283211531057E
:101D200009F0B0CFF0937502E09374029ECFFD01ED
:101D3000DC01C0CF13821282D7CFB0E0A0E0E3EA8B
:101D4000FEE00C94030C8C01009751F4CB010E942F
:101D5000780D8C01C801CDB7DEB7E0E10C941F0C03
:101D6000FC01E60FF71F9C0122503109E217F3072F
:101D700008F49DC0D901CD91DC911197C617D70702
:101D800098F0C530D10530F3CE0104978617970738
:101D900008F3C61BD70B2297C193D1936D937C9305
:101DA000CF010E94140ED6CF5B01AC1ABD0A4C01C4
:101DB0008C0E9D1EA0917402B0917502512C412C85
:101DC000F12CE12C109731F5809172029091730201
:101DD0008815990509F05CC04616570608F058C0EA
:101DE0008091000190910101009741F48DB79EB759
:101DF0004091040150910501841B950BE817F907E8
:101E000008F055C0F0937302E0937202F9017183F8
:101E10006083A0CF8D919C91119712966C90129730
:101E200013967C901397A815B90559F56C0142E0FB
:101E3000C40ED11CCA14DB0420F1AC014A195B09A1
:101E4000DA011296159780F0628273825183408383
:101E5000D9016D937C93E114F10471F0D7011396CD
:101E6000FC93EE93129776CF22968C0F9D1FF9016B
:101E700091838083F301EFCFF0937502E0937402B6
:101E800069CF4816590608F42C017D01D3019ACF79
:101E9000CB010E94780D7C01009749F0AE01B8019A
:101EA0000E945A0FC8010E94140E870153CF10E000
:101EB00000E050CFFB01DC0102C001900D924150C7
:101EC0005040D8F70895FB01DC0101900D920020ED
:081ED000E1F70895F894FFCF3B
:101ED800000076028000000000000F026F019C01E4
:101EE8005C02CD01AB01BF0104050607002474495B
:101EF8000050C34700401C4600007A440D0A006E9B
:101F0800616E00696E66006F7666003120736563E6
:101F180020656C6170617365642C206C6F6F702034
:101F280062726F6B656E00646174613A0063617020
:101F3800616369746F72206469736368617267654D
:101F4800642E2E2E00436170616369746F7220766F
:101F5800616C7565206F7574206F662064657369A0
:101F6800676E2072616E6765202E2E2E2E004D65DD
:101F780061737572656D656E7420647572617469DC
:101F88006F6E3A00436F756E7465723A0020704642
:0A1F980000206E4600207546000090
:00000001FF
